{
  "_format": "hh-sol-artifact-1",
  "contractName": "IKEP_SingleMatch",
  "sourceName": "contracts/Lock.sol",
  "abi": [
    {
      "inputs": [],
      "stateMutability": "nonpayable",
      "type": "constructor"
    },
    {
      "anonymous": false,
      "inputs": [],
      "name": "DonorSubmitted",
      "type": "event"
    },
    {
      "anonymous": false,
      "inputs": [
        {
          "indexed": false,
          "internalType": "uint256",
          "name": "score",
          "type": "uint256"
        }
      ],
      "name": "Matched",
      "type": "event"
    },
    {
      "anonymous": false,
      "inputs": [
        {
          "indexed": false,
          "internalType": "uint256",
          "name": "score",
          "type": "uint256"
        }
      ],
      "name": "NotMatched",
      "type": "event"
    },
    {
      "anonymous": false,
      "inputs": [],
      "name": "PatientSubmitted",
      "type": "event"
    },
    {
      "anonymous": false,
      "inputs": [
        {
          "indexed": false,
          "internalType": "uint256",
          "name": "score",
          "type": "uint256"
        }
      ],
      "name": "ScoreCalculated",
      "type": "event"
    },
    {
      "inputs": [],
      "name": "accessLocked",
      "outputs": [
        {
          "internalType": "bool",
          "name": "",
          "type": "bool"
        }
      ],
      "stateMutability": "view",
      "type": "function"
    },
    {
      "inputs": [],
      "name": "computeCompatibilityScore",
      "outputs": [
        {
          "internalType": "uint256",
          "name": "score",
          "type": "uint256"
        }
      ],
      "stateMutability": "view",
      "type": "function"
    },
    {
      "inputs": [],
      "name": "donor",
      "outputs": [
        {
          "internalType": "uint256",
          "name": "age",
          "type": "uint256"
        },
        {
          "internalType": "string",
          "name": "bloodGroup",
          "type": "string"
        },
        {
          "internalType": "uint256",
          "name": "kidneySize",
          "type": "uint256"
        },
        {
          "internalType": "string",
          "name": "pincode",
          "type": "string"
        }
      ],
      "stateMutability": "view",
      "type": "function"
    },
    {
      "inputs": [],
      "name": "donorSubmitted",
      "outputs": [
        {
          "internalType": "bool",
          "name": "",
          "type": "bool"
        }
      ],
      "stateMutability": "view",
      "type": "function"
    },
    {
      "inputs": [],
      "name": "hospital",
      "outputs": [
        {
          "internalType": "address",
          "name": "",
          "type": "address"
        }
      ],
      "stateMutability": "view",
      "type": "function"
    },
    {
      "inputs": [],
      "name": "matchNow",
      "outputs": [
        {
          "internalType": "bool",
          "name": "",
          "type": "bool"
        }
      ],
      "stateMutability": "nonpayable",
      "type": "function"
    },
    {
      "inputs": [],
      "name": "patient",
      "outputs": [
        {
          "internalType": "uint256",
          "name": "age",
          "type": "uint256"
        },
        {
          "internalType": "string",
          "name": "bloodGroup",
          "type": "string"
        },
        {
          "internalType": "uint256",
          "name": "kidneySize",
          "type": "uint256"
        },
        {
          "internalType": "uint256",
          "name": "pra",
          "type": "uint256"
        },
        {
          "internalType": "string",
          "name": "pincode",
          "type": "string"
        }
      ],
      "stateMutability": "view",
      "type": "function"
    },
    {
      "inputs": [],
      "name": "patientSubmitted",
      "outputs": [
        {
          "internalType": "bool",
          "name": "",
          "type": "bool"
        }
      ],
      "stateMutability": "view",
      "type": "function"
    },
    {
      "inputs": [],
      "name": "reset",
      "outputs": [],
      "stateMutability": "nonpayable",
      "type": "function"
    },
    {
      "inputs": [
        {
          "internalType": "uint256",
          "name": "age",
          "type": "uint256"
        },
        {
          "internalType": "string[]",
          "name": "hla",
          "type": "string[]"
        },
        {
          "internalType": "string",
          "name": "bloodGroup",
          "type": "string"
        },
        {
          "internalType": "uint256",
          "name": "kidneySize",
          "type": "uint256"
        },
        {
          "internalType": "string",
          "name": "pincode",
          "type": "string"
        }
      ],
      "name": "submitDonor",
      "outputs": [],
      "stateMutability": "nonpayable",
      "type": "function"
    },
    {
      "inputs": [
        {
          "internalType": "uint256",
          "name": "age",
          "type": "uint256"
        },
        {
          "internalType": "string[]",
          "name": "hla",
          "type": "string[]"
        },
        {
          "internalType": "string",
          "name": "bloodGroup",
          "type": "string"
        },
        {
          "internalType": "uint256",
          "name": "kidneySize",
          "type": "uint256"
        },
        {
          "internalType": "uint256",
          "name": "pra",
          "type": "uint256"
        },
        {
          "internalType": "string",
          "name": "pincode",
          "type": "string"
        }
      ],
      "name": "submitPatient",
      "outputs": [],
      "stateMutability": "nonpayable",
      "type": "function"
    },
    {
      "inputs": [
        {
          "internalType": "bool",
          "name": "_lock",
          "type": "bool"
        }
      ],
      "name": "toggleAccessLock",
      "outputs": [],
      "stateMutability": "nonpayable",
      "type": "function"
    },
    {
      "inputs": [],
      "name": "viewScore",
      "outputs": [
        {
          "internalType": "uint256",
          "name": "",
          "type": "uint256"
        }
      ],
      "stateMutability": "view",
      "type": "function"
    }
  ],
  "bytecode": "0x608060405260008060146101000a81548160ff0219169083151502179055506000600c60006101000a81548160ff0219169083151502179055506000600c60016101000a81548160ff021916908315150217905550348015605f57600080fd5b50336000806101000a81548173ffffffffffffffffffffffffffffffffffffffff021916908373ffffffffffffffffffffffffffffffffffffffff160217905550612201806100af6000396000f3fe608060405234801561001057600080fd5b50600436106100cf5760003560e01c8063bd96bd201161008c578063d826f88f11610066578063d826f88f146101e7578063ee9b3ba8146101f1578063f55d89c21461020d578063fe7be5d914610229576100cf565b8063bd96bd201461018b578063cb35fd91146101ad578063d27cb360146101cb576100cf565b80630970764c146100d457806325223bd4146100f25780632f05095b1461011357806341e383531461013157806372c57d0e1461014f578063aa2fedde1461016d575b600080fd5b6100dc610247565b6040516100e99190611358565b60405180910390f35b6100fa610421565b60405161010a949392919061141c565b60405180910390f35b61011b61054f565b6040516101289190611358565b60405180910390f35b610139610562565b604051610146919061146f565b60405180910390f35b61015761093f565b6040516101649190611358565b60405180910390f35b610175610952565b60405161018291906114cb565b60405180910390f35b610193610976565b6040516101a49594939291906114e6565b60405180910390f35b6101b5610aaa565b6040516101c29190611358565b60405180910390f35b6101e560048036038101906101e091906117a2565b610abd565b005b6101ef610c7e565b005b61020b6004803603810190610206919061189d565b610dee565b005b610227600480360381019061022291906118ca565b610e99565b005b6102316110af565b60405161023e919061146f565b60405180910390f35b60008060149054906101000a900460ff1615806102af575060008054906101000a900473ffffffffffffffffffffffffffffffffffffffff1673ffffffffffffffffffffffffffffffffffffffff163373ffffffffffffffffffffffffffffffffffffffff16145b6102ee576040517f08c379a00000000000000000000000000000000000000000000000000000000081526004016102e5906119f7565b60405180910390fd5b600c60009054906101000a900460ff1680156103165750600c60019054906101000a900460ff165b610355576040517f08c379a000000000000000000000000000000000000000000000000000000000815260040161034c90611a63565b60405180910390fd5b600061035f610562565b90507ff547461fbc709d4917fc557281f82bf5c2f86dc7a60606e043859c1571ed3de781604051610390919061146f565b60405180910390a1601281106103e1577f06cdd1467093b5747ffd33a6efc4cbc16767f3ead7a606a5563d8b84037bf91d816040516103cf919061146f565b60405180910390a1600191505061041e565b7f19dbdc2b3f6fa6f30429048e52874d3fea5ad93b00d575414d82e069c646315d81604051610410919061146f565b60405180910390a160009150505b90565b600180600001549080600101805461043890611ab2565b80601f016020809104026020016040519081016040528092919081815260200182805461046490611ab2565b80156104b15780601f10610486576101008083540402835291602001916104b1565b820191906000526020600020905b81548152906001019060200180831161049457829003601f168201915b5050505050908060030154908060040180546104cc90611ab2565b80601f01602080910402602001604051908101604052809291908181526020018280546104f890611ab2565b80156105455780601f1061051a57610100808354040283529160200191610545565b820191906000526020600020905b81548152906001019060200180831161052857829003601f168201915b5050505050905084565b600c60019054906101000a900460ff1681565b6000600c60009054906101000a900460ff16801561058c5750600c60019054906101000a900460ff165b6105cb576040517f08c379a00000000000000000000000000000000000000000000000000000000081526004016105c290611a63565b60405180910390fd5b600090506106f26001800180546105e190611ab2565b80601f016020809104026020016040519081016040528092919081815260200182805461060d90611ab2565b801561065a5780601f1061062f5761010080835404028352916020019161065a565b820191906000526020600020905b81548152906001019060200180831161063d57829003601f168201915b50505050506006600101805461066f90611ab2565b80601f016020809104026020016040519081016040528092919081815260200182805461069b90611ab2565b80156106e85780601f106106bd576101008083540402835291602001916106e8565b820191906000526020600020905b8154815290600101906020018083116106cb57829003601f168201915b5050505050611125565b15610707576006816107049190611b12565b90505b600060066000015460016000015461071f9190611b50565b9050600081121561073e576006826107379190611b12565b9150610791565b602881136107905760006064600f836107579190611b93565b6107619190611c3a565b9050600681101561077e578060066107799190611ca4565b610781565b60005b8361078c9190611b12565b9250505b5b6000600660030154600160030154116107bf576001600301546006600301546107ba9190611ca4565b6107d6565b6006600301546001600301546107d59190611ca4565b5b9050600381116107fb578060066107ed9190611ca4565b836107f89190611b12565b92505b600660050160405161080d9190611d7b565b604051809103902060016004016040516108279190611d7b565b604051809103902003610844576006836108419190611b12565b92505b6000805b6001600201805490508110801561085f5750600682105b1561092a5760005b6006600201805490508110801561087e5750600683105b15610916576006600201818154811061089a57610899611d92565b5b906000526020600020016040516108b19190611d7b565b6040518091039020600160020183815481106108d0576108cf611d92565b5b906000526020600020016040516108e79190611d7b565b6040518091039020036109035782806108ff90611dc1565b9350505b808061090e90611dc1565b915050610867565b50808061092290611dc1565b915050610848565b5080846109379190611b12565b935050505090565b600c60009054906101000a900460ff1681565b60008054906101000a900473ffffffffffffffffffffffffffffffffffffffff1681565b600680600001549080600101805461098d90611ab2565b80601f01602080910402602001604051908101604052809291908181526020018280546109b990611ab2565b8015610a065780601f106109db57610100808354040283529160200191610a06565b820191906000526020600020905b8154815290600101906020018083116109e957829003601f168201915b505050505090806003015490806004015490806005018054610a2790611ab2565b80601f0160208091040260200160405190810160405280929190818152602001828054610a5390611ab2565b8015610aa05780601f10610a7557610100808354040283529160200191610aa0565b820191906000526020600020905b815481529060010190602001808311610a8357829003601f168201915b5050505050905085565b600060149054906101000a900460ff1681565b600060149054906101000a900460ff161580610b24575060008054906101000a900473ffffffffffffffffffffffffffffffffffffffff1673ffffffffffffffffffffffffffffffffffffffff163373ffffffffffffffffffffffffffffffffffffffff16145b610b63576040517f08c379a0000000000000000000000000000000000000000000000000000000008152600401610b5a906119f7565b60405180910390fd5b6000845111610ba7576040517f08c379a0000000000000000000000000000000000000000000000000000000008152600401610b9e90611e55565b60405180910390fd5b6040518060a00160405280868152602001848152602001858152602001838152602001828152506001600082015181600001556020820151816001019081610bef9190612021565b506040820151816002019080519060200190610c0c929190611242565b50606082015181600301556080820151816004019081610c2c9190612021565b509050506001600c60006101000a81548160ff0219169083151502179055507fc54621c8010083a0ac5ac91364cf320f88fd2d120530e95f456fb31ae82ff93760405160405180910390a15050505050565b600060149054906101000a900460ff161580610ce5575060008054906101000a900473ffffffffffffffffffffffffffffffffffffffff1673ffffffffffffffffffffffffffffffffffffffff163373ffffffffffffffffffffffffffffffffffffffff16145b610d24576040517f08c379a0000000000000000000000000000000000000000000000000000000008152600401610d1b906119f7565b60405180910390fd5b6000600c60006101000a81548160ff0219169083151502179055506000600c60016101000a81548160ff0219169083151502179055506001600080820160009055600182016000610d75919061129b565b600282016000610d8591906112db565b6003820160009055600482016000610d9d919061129b565b50506006600080820160009055600182016000610dba919061129b565b600282016000610dca91906112db565b60038201600090556004820160009055600582016000610dea919061129b565b5050565b60008054906101000a900473ffffffffffffffffffffffffffffffffffffffff1673ffffffffffffffffffffffffffffffffffffffff163373ffffffffffffffffffffffffffffffffffffffff1614610e7c576040517f08c379a0000000000000000000000000000000000000000000000000000000008152600401610e739061213f565b60405180910390fd5b80600060146101000a81548160ff02191690831515021790555050565b600060149054906101000a900460ff161580610f00575060008054906101000a900473ffffffffffffffffffffffffffffffffffffffff1673ffffffffffffffffffffffffffffffffffffffff163373ffffffffffffffffffffffffffffffffffffffff16145b610f3f576040517f08c379a0000000000000000000000000000000000000000000000000000000008152600401610f36906119f7565b60405180910390fd5b6000855111610f83576040517f08c379a0000000000000000000000000000000000000000000000000000000008152600401610f7a90611e55565b60405180910390fd5b6064821115610fc7576040517f08c379a0000000000000000000000000000000000000000000000000000000008152600401610fbe906121ab565b60405180910390fd5b6040518060c001604052808781526020018581526020018681526020018481526020018381526020018281525060066000820151816000015560208201518160010190816110159190612021565b506040820151816002019080519060200190611032929190611242565b50606082015181600301556080820151816004015560a082015181600501908161105c9190612021565b509050506001600c60016101000a81548160ff0219169083151502179055507f90c0a61113003371a275d6905faf89408f141116c7ca585e770224916ee4253060405160405180910390a1505050505050565b6000600c60009054906101000a900460ff1680156110d95750600c60019054906101000a900460ff165b611118576040517f08c379a000000000000000000000000000000000000000000000000000000000815260040161110f90611a63565b60405180910390fd5b611120610562565b905090565b600080838051906020012090506000838051906020012090507fc669aa98d5975cc43653c879a18d9bc4aa8bf51e69f61aeb1d7769216f98009a82036111705760019250505061123c565b8082036111825760019250505061123c565b7f03783fac2efed8fbc9ad443e592ee30e61d65f471140c10ca155e937b435b760821480156111d057507f21faab852d29e39c56dc14d20d71ba15c1ea83a26f45b658b5e8d0f8d61f3bbd81145b8061122557507f1f675bff07515f5df96737194ea945c36c41e7b4fcef307b7cd4d0e602a691118214801561122457507f21faab852d29e39c56dc14d20d71ba15c1ea83a26f45b658b5e8d0f8d61f3bbd81145b5b156112355760019250505061123c565b6000925050505b92915050565b82805482825590600052602060002090810192821561128a579160200282015b828111156112895782518290816112799190612021565b5091602001919060010190611262565b5b50905061129791906112fc565b5090565b5080546112a790611ab2565b6000825580601f106112b957506112d8565b601f0160209004906000526020600020908101906112d79190611320565b5b50565b50805460008255906000526020600020908101906112f991906112fc565b50565b5b8082111561131c5760008181611313919061129b565b506001016112fd565b5090565b5b80821115611339576000816000905550600101611321565b5090565b60008115159050919050565b6113528161133d565b82525050565b600060208201905061136d6000830184611349565b92915050565b6000819050919050565b61138681611373565b82525050565b600081519050919050565b600082825260208201905092915050565b60005b838110156113c65780820151818401526020810190506113ab565b60008484015250505050565b6000601f19601f8301169050919050565b60006113ee8261138c565b6113f88185611397565b93506114088185602086016113a8565b611411816113d2565b840191505092915050565b6000608082019050611431600083018761137d565b818103602083015261144381866113e3565b9050611452604083018561137d565b818103606083015261146481846113e3565b905095945050505050565b6000602082019050611484600083018461137d565b92915050565b600073ffffffffffffffffffffffffffffffffffffffff82169050919050565b60006114b58261148a565b9050919050565b6114c5816114aa565b82525050565b60006020820190506114e060008301846114bc565b92915050565b600060a0820190506114fb600083018861137d565b818103602083015261150d81876113e3565b905061151c604083018661137d565b611529606083018561137d565b818103608083015261153b81846113e3565b90509695505050505050565b6000604051905090565b600080fd5b600080fd5b61156481611373565b811461156f57600080fd5b50565b6000813590506115818161155b565b92915050565b600080fd5b7f4e487b7100000000000000000000000000000000000000000000000000000000600052604160045260246000fd5b6115c4826113d2565b810181811067ffffffffffffffff821117156115e3576115e261158c565b5b80604052505050565b60006115f6611547565b905061160282826115bb565b919050565b600067ffffffffffffffff8211156116225761162161158c565b5b602082029050602081019050919050565b600080fd5b600080fd5b600067ffffffffffffffff8211156116585761165761158c565b5b611661826113d2565b9050602081019050919050565b82818337600083830152505050565b600061169061168b8461163d565b6115ec565b9050828152602081018484840111156116ac576116ab611638565b5b6116b784828561166e565b509392505050565b600082601f8301126116d4576116d3611587565b5b81356116e484826020860161167d565b91505092915050565b60006117006116fb84611607565b6115ec565b9050808382526020820190506020840283018581111561172357611722611633565b5b835b8181101561176a57803567ffffffffffffffff81111561174857611747611587565b5b80860161175589826116bf565b85526020850194505050602081019050611725565b5050509392505050565b600082601f83011261178957611788611587565b5b81356117998482602086016116ed565b91505092915050565b600080600080600060a086880312156117be576117bd611551565b5b60006117cc88828901611572565b955050602086013567ffffffffffffffff8111156117ed576117ec611556565b5b6117f988828901611774565b945050604086013567ffffffffffffffff81111561181a57611819611556565b5b611826888289016116bf565b935050606061183788828901611572565b925050608086013567ffffffffffffffff81111561185857611857611556565b5b611864888289016116bf565b9150509295509295909350565b61187a8161133d565b811461188557600080fd5b50565b60008135905061189781611871565b92915050565b6000602082840312156118b3576118b2611551565b5b60006118c184828501611888565b91505092915050565b60008060008060008060c087890312156118e7576118e6611551565b5b60006118f589828a01611572565b965050602087013567ffffffffffffffff81111561191657611915611556565b5b61192289828a01611774565b955050604087013567ffffffffffffffff81111561194357611942611556565b5b61194f89828a016116bf565b945050606061196089828a01611572565b935050608061197189828a01611572565b92505060a087013567ffffffffffffffff81111561199257611991611556565b5b61199e89828a016116bf565b9150509295509295509295565b7f416363657373207265737472696374656420746f20686f73706974616c000000600082015250565b60006119e1601d83611397565b91506119ec826119ab565b602082019050919050565b60006020820190508181036000830152611a10816119d4565b9050919050565b7f426f7468207265636f726473206d757374206265207375626d69747465640000600082015250565b6000611a4d601e83611397565b9150611a5882611a17565b602082019050919050565b60006020820190508181036000830152611a7c81611a40565b9050919050565b7f4e487b7100000000000000000000000000000000000000000000000000000000600052602260045260246000fd5b60006002820490506001821680611aca57607f821691505b602082108103611add57611adc611a83565b5b50919050565b7f4e487b7100000000000000000000000000000000000000000000000000000000600052601160045260246000fd5b6000611b1d82611373565b9150611b2883611373565b9250828201905080821115611b4057611b3f611ae3565b5b92915050565b6000819050919050565b6000611b5b82611b46565b9150611b6683611b46565b9250828203905081811260008412168282136000851215161715611b8d57611b8c611ae3565b5b92915050565b6000611b9e82611b46565b9150611ba983611b46565b9250828202611bb781611b46565b91507f80000000000000000000000000000000000000000000000000000000000000008414600084121615611bef57611bee611ae3565b5b8282058414831517611c0457611c03611ae3565b5b5092915050565b7f4e487b7100000000000000000000000000000000000000000000000000000000600052601260045260246000fd5b6000611c4582611b46565b9150611c5083611b46565b925082611c6057611c5f611c0b565b5b600160000383147f800000000000000000000000000000000000000000000000000000000000000083141615611c9957611c98611ae3565b5b828205905092915050565b6000611caf82611373565b9150611cba83611373565b9250828203905081811115611cd257611cd1611ae3565b5b92915050565b600081905092915050565b60008190508160005260206000209050919050565b60008154611d0581611ab2565b611d0f8186611cd8565b94506001821660008114611d2a5760018114611d3f57611d72565b60ff1983168652811515820286019350611d72565b611d4885611ce3565b60005b83811015611d6a57815481890152600182019150602081019050611d4b565b838801955050505b50505092915050565b6000611d878284611cf8565b915081905092915050565b7f4e487b7100000000000000000000000000000000000000000000000000000000600052603260045260246000fd5b6000611dcc82611373565b91507fffffffffffffffffffffffffffffffffffffffffffffffffffffffffffffffff8203611dfe57611dfd611ae3565b5b600182019050919050565b7f484c4120747970696e6720726571756972656400000000000000000000000000600082015250565b6000611e3f601383611397565b9150611e4a82611e09565b602082019050919050565b60006020820190508181036000830152611e6e81611e32565b9050919050565b60008190508160005260206000209050919050565b60006020601f8301049050919050565b600082821b905092915050565b600060088302611ed77fffffffffffffffffffffffffffffffffffffffffffffffffffffffffffffffff82611e9a565b611ee18683611e9a565b95508019841693508086168417925050509392505050565b6000819050919050565b6000611f1e611f19611f1484611373565b611ef9565b611373565b9050919050565b6000819050919050565b611f3883611f03565b611f4c611f4482611f25565b848454611ea7565b825550505050565b600090565b611f61611f54565b611f6c818484611f2f565b505050565b5b81811015611f9057611f85600082611f59565b600181019050611f72565b5050565b601f821115611fd557611fa681611e75565b611faf84611e8a565b81016020851015611fbe578190505b611fd2611fca85611e8a565b830182611f71565b50505b505050565b600082821c905092915050565b6000611ff860001984600802611fda565b1980831691505092915050565b60006120118383611fe7565b9150826002028217905092915050565b61202a8261138c565b67ffffffffffffffff8111156120435761204261158c565b5b61204d8254611ab2565b612058828285611f94565b600060209050601f83116001811461208b5760008415612079578287015190505b6120838582612005565b8655506120eb565b601f19841661209986611e75565b60005b828110156120c15784890151825560018201915060208501945060208101905061209c565b868310156120de57848901516120da601f891682611fe7565b8355505b6001600288020188555050505b505050505050565b7f4f6e6c7920686f73706974616c2063616e206c6f636b20616363657373000000600082015250565b6000612129601d83611397565b9150612134826120f3565b602082019050919050565b600060208201905081810360008301526121588161211c565b9050919050565b7f505241206d75737420626520302d313030000000000000000000000000000000600082015250565b6000612195601183611397565b91506121a08261215f565b602082019050919050565b600060208201905081810360008301526121c481612188565b905091905056fea26469706673582212200abd4257f4c3d784b77c969819b86d1339a7a596f009c0cddf5ab9fd88520d5b64736f6c634300081c0033",
  "linkReferences": {},
  "deployedLinkReferences": {}
}